:1000000000308A005A280000E8326C366F10F7374B
:100010007236640500000B08A2008B1383160317C9
:100020008C170C140000000083120C087F39031990
:1000300054280313A30003170D080313A400031788
:100040000F080313A50023080C1E24289900240878
:1000500003178D000313250803178F0083168C17D1
:100060000C140000000083120C0D0E0D7F390319D3
:1000700054280313A30003170D080313A400031748
:100080000F080313A50023080C1E44289900240818
:1000900003178D000313250803178F008D0A03191A
:1000A0008F0A03130E2803170313A21B8B178A1141
:1000B0000A127E28840183131F30830583160317D9
:1000C00087110C3003139900A230980090308312EE
:1000D0009800831603170908C039890003131F12FB
:1000E0009F1200300317880083128701880189015D
:1000F00004308D0000308F0003130B288C1E7E28E7
:100100001A08A10021080C1E832899007E2863008C
:04400E00E22FFF3F5F
:00000001FF
;PIC16F887
;CRC=5F4B  CREATED="11-‰Ê„»—-18 20:19"
