:1000000000308A00372800000C264322201AC22420
:1000100054104439693B65390A0020102010202B08
:100020002310A5182E1966000C22653B65366F3823
:1000300065393A004131E43A6C10D232E836613722
:1000400000010C10C3376D3869366532A0276E1079
:100050000A100001323439342D34E434E634E33408
:10006000C834D1342D343134383400340C00840198
:1000700083131F308305831603170908C0398900CD
:1000800003131F129F120030031788008312870189
:08009000880189014A28630080
:04400E00E22FFF3F5F
:00000001FF
;PIC16F887
;CRC=700F  CREATED="29-‰Ê„»—-18 20:42"
