:1000000002308A004B2A0000FF00030E8301A1008A
:100010000A08A0008A010408A2007708A300780853
:10002000A4007908A5007A08A600831383128B1E0A
:100030001B280B192C28220884002308F700240809
:10004000F8002508F9002608FA0020088A00210E89
:100050008300FF0E7F0E09008A110A126A280A1017
:100060008A100A11820728340C34013406340C2615
:100070004322201AC22454104439693B65390A00CE
:1000800020102010202B2310A5182E1966000C22FA
:10009000653B65366F3865393A004131E43A6C109A
:1000A000D232E836613700010C10C3376D3869363B
:1000B0006532A0276E100A100001323439342D3415
:1000C000E434E634E334C834D1342D3431343834B4
:1000D00000340C000B11643081000130A7070318B5
:1000E000A80A0319A90A0319AA0A831606100130DF
:1000F00083128606AB000B118A110A121B283C30B2
:10010000840083130008031992280230F800F701D5
:10011000F70B8828F80B87289730F700F70B8E2805
:10012000800B852808004218972806129828061682
:10013000831606128312C2189F288612A0288616DC
:100140008316861283124219A7280613A8280617B9
:10015000831606138312C219AF288613B028861798
:10016000831686130000861183128615B728B828D7
:1001700083168611831286110800831606118312D6
:1001800006112730F700F70BC328C628BF0803194C
:10019000CE288316061183120615D228831606115F
:1001A0008312061100008316861183128611400EF9
:1001B000C1000F30C1054108C200932040080F392B
:1001C000C100C20093200800831606118312061195
:1001D00083168611831286110F30BC007F20AF0179
:1001E0002F08023C031CFC280330C200932005307A
:1001F000BC007F20AF0AF0280230C2009320AF017C
:100200002F08033C031C10292F082F20B000BF012A
:100210003008C000BD200530BC007F20AF0A002997
:100220008A110A12712A01303D02FC3E0318252969
:10023000043E2D298030BE002529C030BE0025296E
:100240009430BE002529D430BE0001303C02BE07E8
:10025000BF013E08C000BD2008000A148A100A1120
:1002600082071A291D292029232983183A294A306F
:1002700084008313F701F801F901FA01CA01CB01E7
:10028000CC01CD01490848044704460403197829E4
:100290002030CE000310C20DC30DC40DC50DCA0D14
:1002A000CB0DCC0DCD0D49084D02031D6129480829
:1002B0004C02031D612947084B02031D61294608B2
:1002C0004A02031C72294608CA024708031C470F4A
:1002D000CB024808031C480FCC024908031C490FF5
:1002E000CD020314F70DF80DF90DFA0DCE0B4A29C6
:1002F0004A088000840A4B088000840A4C08800069
:10030000840A4D08800008003B080C3A03198F2925
:10031000063A03199729023A03199D29A229BF0118
:100320000130C000BD200230BC007F20A729013071
:10033000BC000230BD001321A729BF011030C0004E
:10034000BD20A7290130BF003B08C000BD20080028
:100350000408B3003B30BA009A30B900CA30B80084
:10036000B7010A30B50083142F308400831332089C
:10037000C5003108C4003008C3002F08C2003A0885
:10038000C9003908C8003808C7003708C600352139
:100390007808F708031DDF293508013A0319DF291A
:1003A00033080319E0290F3935020319D929031835
:1003B000E529B31BE529331BE0292030E129B301EE
:1003C0003030F7077708BB00842183103A08C50056
:1003D0003908C4003808C3003708C200C901C80181
:1003E000C7010A30C60035217A08BA007908B90079
:1003F0007808B8007708B700B50BB3298A110A123C
:10040000842A3208F80131020318092A3108F7005A
:10041000152AF7010830B300B10DF70D3208770245
:100420000318F700F80DB30B0C2A080078082F0802
:10043000B1006430B20001227708AF007808303094
:10044000031D292AB01C302AB019302A301A203056
:100450002C2AB01130123014F8077808BB00842120
:100460002F08B1000A30B20001227708AF007808E7
:100470003030031D412AB019452A301C452A301A54
:100480002030F8077808BB0084213030AF072F08F0
:10049000BB0084210800840183131F308305AA0157
:1004A000A901A801A701AB01831603170908C039E8
:1004B000890003131F129F12003003178800831254
:1004C000870188018901831603130108C0390638A2
:1004D00081006430831281000B118B16C0308B04B5
:1004E000E4282B0BFB2AAB010430BC000130BD001B
:1004F0001321483084002A08B2002908B1002808D6
:10050000B0002708AF00A82983102A08C5002908D1
:10051000C4002808C3002708C200C901C801173059
:10052000C7007030C60035217708F8007808AC00A5
:1005300083102A08C5002908C4002808C30027081A
:10054000C200C901C801C7016430C60035217A085C
:10055000B9007908B8007808B7007708B6008314A6
:100560003A30840083137A08C5007908C4007808FB
:10057000C3007708C200C901C801C7013C30C600EA
:1005800035213A08F7003B08F8003C08F9003D081F
:10059000FA003A08F8007808AD0083142F30840080
:1005A00083132A08C5002908C4002808C3002708A7
:1005B000C200C901C801C7016430C60035212F0837
:1005C000AE000430BC000230BD0013212C08AF0087
:1005D0000130B00016223A30BB0084212D08AF0054
:1005E0000130B00016223A30BB0084212E08AF0043
:0A05F0000130B0001622712A6300EA
:04400E00E22FFF3F5F
:00000001FF
;PIC16F887
;CRC=5622  CREATED="29-‰Ê„»—-18 21:21"
