:1000000000308A0018280000223084008313000882
:10001000031917280230F800F701F70B0D28F80B29
:100020000C289730F700F70B1328800B0A280800DC
:10003000840183131F308305831603170908C03911
:10004000890003131F129F120030031788008312C8
:10005000870188018901831603130810831208148D
:100060000230A100FA30A2000420A10B322883162E
:100070000810831208100230A100FA30A2000420F8
:0A008000A10B3D2803172B28630095
:04400E00E22FFF3F5F
:00000001FF
;PIC16F887
;CRC=3E4C  CREATED="30-«ò Ê»—-18 17:25"
