:1000000003308A00B62B0000FF00030E8301A1001D
:100010000A08A0008A010408A2007708A300780853
:10002000A4007908A5007A08A600831383128C30F7
:100030008400801C1D288C182E2822088400230888
:10004000F7002408F8002508F9002608FA0020081F
:100050008A00210E8300FF0E7F0E09008A110A120A
:1000600031280F08FA000E08F7000F087A02031D66
:1000700031287708A7007A08A800AC0A0319AD0A4E
:100080002C08FA3C031D5028AD08031D50282B14E2
:10009000AD01AC018F018E012808AA002708A90034
:1000A0008C108A110A121D280D23E538F532EE3125
:1000B00079103D10A5182E1A66106B247A102010A6
:1000C0002010201000000D23E538F532EE317910B4
:1000D0003D1025367510483D2010201020102010AE
:1000E000201000008E30F7002F08F8002E08F900CD
:1000F000FA01F808031D86287908F800F90108308C
:10010000F702F808031D8628F7018E280310F81B54
:100110008D28F90DF80DF7038628F8138A110A12B5
:10012000FF2B320803195629BE0036080319562939
:10013000BE02031CA0287F30BE0703185629A6283C
:100140008130BE02031C5629031956293E08F700C8
:10015000F801F901FA01BD013308BC00BC173408ED
:10016000BB003508BA001930BE003908BA020318BE
:10017000C9280130BB020318C928BC020318C928CA
:10018000BD020318C928BD0ABC0ABB0A3908BA0750
:10019000FB283808BB020318E4280130BC0203180E
:1001A000E428BD020318E428BD0ABC0A3808BB07CE
:1001B0003908BA07031CFB28BB0A031DFB28BC0A2D
:1001C000031DFB28BD0AFB2837088038BC02031832
:1001D000FA280130BD020318FA28BD0A3708803812
:1001E000BC073808BB07031CD828BC0A031DD82845
:1001F000BD0AD8287A14BE0BFE2809290310BA0DAF
:10020000BB0DBC0DBD0D0310FA0DF90DF80DBF0DA2
:10021000B5283F1C11290310F80CF90CFA0CBF0C7F
:100220001429F70303195629BF1B3D290310BA0DE2
:10023000BB0DBC0DBD0D3908BA02031829290130C8
:10024000BB0203182929BC0203182929BD02031C7B
:100250004C293808BB02031834290130BC020318AA
:100260003429BD02031C4C2937088038BC0203180E
:100270003D290130BD02031C4C29FA0A031D4C29FB
:10028000F90A031D4C29F80A031D4C29F70A031922
:100290005629F80CF90CFA0C3308BE003708BE06D4
:1002A000BE1F5429F8175A29F8135A29F701F801E3
:1002B000F901FA018A110A12152C0B08B3008B13ED
:1002C000831603178C170C140000000003189029E4
:1002D00083120C087F390313B40003170D080313AE
:1002E000B50003170F080313B60034080C1E762957
:1002F0009900350803178D000313360803178F0084
:1003000083168C170C140000000083120313B20B29
:100310008A298D29831603179029B029831603177C
:1003200083120C0D0E0D7F390313B40003170D0853
:100330000313B50003170F080313B60034080C1E8F
:100340009F299900350803178D00031336080317FA
:100350008F008D0A03198F0A03100313B20B602953
:10036000B31B8B1708008318B82947308400831308
:10037000F701F801F901FA01C701C801C901CA0171
:1003800046084504440443040319F6292030CB00F1
:100390000310BF0DC00DC10DC20DC70DC80DC90D95
:1003A000CA0D46084A02031DDF2945084902031DFC
:1003B000DF2944084802031DDF2943084702031CC4
:1003C000F0294308C7024408031C440FC80245082B
:1003D000031C450FC9024608031C460FCA0203143A
:1003E000F70DF80DF90DFA0DCB0BC8294708800061
:1003F000840A48088000840A49088000840A4A0860
:10040000800008000408B7003608B9000319942AD0
:100410003508C2003408C1003308C0003208BF00EC
:10042000C601C5012030C4008230C3003F08031953
:10043000862AC70043080319862AC7070318272AF4
:100440007F30C702031C862A0319862A2B2A813093
:10045000C7070318862A4708F700F801F901FA01CF
:100460004008CB00CB174108CA004208C900183029
:10047000C700C801491C542A4608FA07031C462A2B
:10048000F90A031D462AF80A0319C8174508F9078F
:10049000031C4D2AF80A0319C8174408C100C117E4
:1004A0004108F8070318C817C80DF80CF90CFA0C26
:1004B000CB0CCA0CC90C0310C70B392A0130F70743
:1004C0000318862AF81B6B2ACB0DFA0DF90DF80DCF
:1004D000F7030319862ACB1F7C2AFA0A031D7C2AFC
:1004E000F90A031D7C2AF80A031D7C2AF80CF90C72
:1004F000FA0CF70A0319862A4008C8004408C806FF
:10050000C81F842AF8178A2AF8138A2AF701F801E3
:10051000F901FA017A08B5007908B4007808B30047
:100520007708B200B90B082A3508C2003408C100A8
:100530003308C0003208BF003F08B63CBF00FA01D4
:100540004008C300C0170310C00CC10CC20CFA0C49
:10055000F90CF80CF70CBF0BA32AC31FBA2AF70932
:10056000F809F909FA09F70A0319F80A0319F90A47
:100570000319FA0A7A08B5007908B4007808B300BC
:100580007708B200B51FD12AB703B716B209B3096D
:10059000B409B509B20A0319B30A0319B40A031955
:1005A000B50A3B30BE009A30BD00CA30BC00BB016A
:1005B0000A30B90036080319B70A831432308400B0
:1005C00083133508C2003408C1003308C000320864
:1005D000BF003E08C6003D08C5003C08C4003B08FB
:1005E000C300B3217808F708031D092B360A390226
:1005F0000319092B370803190B2B0F39390203197B
:10060000032B03183F2BB71B3F2B371B0B2B203023
:100610003A2B2030B705B71E1A2BB7123608031D28
:10062000B7037708B7002D300C1E142B990037083C
:10063000F700B70136083902031D292B7708B700E8
:100640002E300C1E212B99003708F7002030B705FB
:1006500000303030B71E3A2BB7123608031DB703EF
:100660007708B7002D300C1E332B99003708F700A0
:10067000B7013030F70777080C1E3C2B9900831028
:100680003E08C2003D08C1003C08C0003B08BF0056
:10069000C601C501C4010A30C300B3217A08BE00F7
:1006A0007908BD007808BC007708BB00B90BDD2ACB
:1006B0008A110A12342CB6010408B5003610831BC7
:1006C00036142F0EF038B100B107E23EB200323ED0
:1006D000B4002F080F39B207B207B407E93EB300E0
:1006E000B307B3072E0E0F39B307B407B30DB40D1C
:1006F000B409B40D2E080F39B407B10D0730B0009E
:100700000A30B407B303031C812BB307B203031CE5
:10071000852BB207B103031C892BB107B003031C5F
:100720008D2B303084008313073035053513840753
:1007300034300402031935170008F700031DA82BF5
:10074000351BA82B351AB02BB519A82B2030AB2B95
:10075000B51535123030F70777080C1EAD2B990010
:10076000840A351F982B8A110A12502C8401831396
:100770001F3083058316031787110C30031399006C
:10078000A23098009030831298002B10AD01AC017C
:10079000831603170908C039890003131F129F121B
:1007A0000030031788008312870188018901003017
:1007B000831603138500FF3087003830F8000538B2
:1007C00083129200FA308316920007308312900051
:1007D00083168C14C03083128B042B1C5B2C2A08CC
:1007E000023C03183F2CFF3A031DFA2B2908E73C73
:1007F00003183F2C2A08AF002908AE00722877089A
:10080000AE007808AF007908B0007A08B100B500F2
:100810007908B4007808B3007708B200B901B801CC
:100820007A30B7008830B60091287708AE00780893
:10083000AF007908B0007A08B100543003178D007A
:1008400000308F0003100C300313B2005D2189309B
:1008500084003108B5003008B4002F08B3002E081A
:10086000B2000430B600022A5C3003178D0000305D
:100870008F0003140B300313B2005D215A2C633038
:1008800003178D0000308F0003100C300313B200EB
:100890005D21103084002A08AF002908AE005B2BD0
:1008A0006A3003178D0000308F0003140D300313DE
:0A08B000B2005D212B10ED2B630058
:04400E00E22FFF3F5F
:00000001FF
;PIC16F887
;CRC=3ACE  CREATED="26-‰Ê„»—-18 17:33"
