:1000000003308A00CB2B00000A108A100A118207E5
:1000100028340C34013406340C264322201AC2241E
:1000200054104439693B65390A0020102010202BF8
:100030002310A5182E1966000C22653B65366F3813
:1000400065393A004131E43A6C10D232E836613712
:1000500000010C10C3376D3869366532A0276E1069
:100060000A100001323438342D34E434E634E334F9
:10007000C834D1342D343134383400343030840035
:1000800083130008031951280230F800F701F70B19
:100090004728F80B46289730F700F70B4D28800BC0
:1000A00044280800361856280612572806168316C4
:1000B00006128312B6185E2886125F2886168316EB
:1000C00086128312361966280613672806178316C8
:1000D00006138312B6196E2886136F2886178316A7
:1000E00086130000861183128615762877288316DA
:1000F00086118312861108008316061183120611D9
:100100002730F700F70B82288528B30803198D28BC
:100110008316061183120615912883160611831281
:10012000061100008316861183128611340EB50065
:100130000F30B5053508B600522034080F39B50028
:10014000B60052200800831606118312061183168A
:100150008611831286110F30B0003E20A2012208C2
:10016000023C031CBB280330B60052200530B0000F
:100170003E20A20AAF280230B6005220A201220877
:10018000033C031CCF2822080420A300B30123084A
:10019000B4007C200530B0003E20A20ABF288A119E
:1001A0000A12E22B01303102FC3E0318E428043E1F
:1001B000EC288030B200E428C030B200E42894304B
:1001C000B200E428D430B20001303002B207B301EB
:1001D0003208B4007C2008000A108A100A11820735
:1001E000D928DC28DF28E2282F080C3A0319FF2839
:1001F000063A03190729023A03190D291229B301F6
:100200000130B4007C200230B0003E2017290130BC
:10021000B0000230B100D2201729B3011030B40071
:100220007C2017290130B3002F08B4007C2008007F
:100230000B08A2008B13831603178C170C140000F5
:10024000000083120C087F3903195F290313A300F0
:1002500003170D080313A40003170F080313A500C9
:100260002308AF00F420240803178D00031325088A
:1002700003178F0083168C170C14000000008312E4
:100280000C0D0E0D7F3903195F290313A30003170B
:100290000D080313A40003170F080313A500230878
:1002A000AF00F420240803178D000313250803175B
:1002B0008F008D0A03198F0A03131B2903170313D9
:1002C000A21B8B170800831868293730840083131A
:1002D000F701F801F901FA01B701B801B901BA0152
:1002E00036083504340433040319A6292030BB0032
:1002F0000310AF0DB00DB10DB20DB70DB80DB90DA6
:10030000BA0D36083A02031D8F2935083902031D3C
:100310008F2934083802031D8F2933083702031C44
:10032000A0293308B7023408031C340FB80235087B
:10033000031C350FB9023608031C360FBA0203142A
:10034000F70DF80DF90DFA0DBB0B78293708800071
:10035000840A38088000840A39088000840A3A0830
:10036000800008000408A7002608A9000319442AF1
:100370002508B2002408B1002308B0002208AF000D
:10038000B601B5012030B4008230B3002F08031944
:10039000362AB70033080319362AB7070318D729B6
:1003A0007F30B702031C362A0319362ADB29813035
:1003B000B7070318362A3708F700F801F901FA01E0
:1003C0003008BB00BB173108BA003208B90018303A
:1003D000B700B801391C042A3608FA07031CF629AD
:1003E000F90A031DF629F80A0319B8173508F907A1
:1003F000031CFD29F80A0319B8173408B100B11716
:100400003108F8070318B817B80DF80CF90CFA0CF6
:10041000BB0CBA0CB90C0310B70BE9290130F70774
:100420000318362AF81B1B2ABB0DFA0DF90DF80D1F
:10043000F7030319362ABB1F2C2AFA0A031D2C2A9C
:10044000F90A031D2C2AF80A031D2C2AF80CF90CB2
:10045000FA0CF70A0319362A3008B8003408B8062F
:10046000B81F342AF8173A2AF8133A2AF701F80184
:10047000F901FA017A08A5007908A4007808A30018
:100480007708A200A90BB8292508B2002408B100FA
:100490002308B0002208AF002F08B63CAF00FA01D5
:1004A0003008B300B0170310B00CB10CB20CFA0C4A
:1004B000F90CF80CF70CAF0B532AB31F6A2AF70993
:1004C000F809F909FA09F70A0319F80A0319F90AE8
:1004D0000319FA0A7A08A5007908A4007808A3008D
:1004E0007708A200A51F812AA703A716A209A309BE
:1004F000A409A509A20A0319A30A0319A40A031946
:10050000A50A3B30AE009A30AD00CA30AC00AB015A
:100510000A30A90026080319A70A83142230840090
:1005200083132508B2002408B1002308B000220874
:10053000AF002E08B6002D08B5002C08B4002B081B
:10054000B30063217808F708031DB92A260A290297
:100550000319B92A27080319BB2A0F3929020319DD
:10056000B32A0318EB2AA71BEB2A271BBB2A203030
:10057000E72A2030A705A71EC92AA7122608031DAF
:10058000A7037708A7002D30AF00F4202708F70055
:10059000A70126082902031DD72A7708A7002E30B5
:1005A000AF00F4202708F7002030A70500303030D6
:1005B000A71EE72AA7122608031DA7037708A7008E
:1005C0002D30AF00F4202708F700A7013030F707DF
:1005D0007708AF00F42083102E08B2002D08B10078
:1005E0002C08B0002B08AF00B601B501B4010A30E9
:1005F000B30063217A08AE007908AD007808AC003A
:100600007708AB00A90B8D2A8A110A12742B0C30C3
:1006100003178D0000308F000313182115300317C6
:100620008D0000308F00031008300313A2000B0868
:10063000A3008B13831603178C170C140000000003
:100640000318492B83120C087F390313A4000317E6
:100650000D080313A50003170F080313A6002408B1
:10066000AF00F420250803178D0003132608031795
:100670008F0083168C170C140000000083120313E4
:10068000A20B432B462B83160317492B682B83168B
:10069000031783120C0D0E0D7F390313A4000317EB
:1006A0000D080313A50003170F080313A600240861
:1006B000AF00F420250803178D0003132608031745
:1006C0008F008D0A03198F0A03100313A20B1A2B34
:1006D000A31B8B1789308400A501A401A3017F30DF
:1006E000A2000230A600B2290630A200FA30B00003
:1006F0003E20A20B762B1C3003178D0000308F009C
:10070000031318210230B000B100D22022300317A9
:100710008D0000308F00031318210430A200FA303E
:10072000B0003E20A20B8F2B293003178D00003024
:100730008F0003131821323003178D0000308F0013
:1007400083168C170C140000000083128C08031908
:10075000C02B0D080313A20003170F080313A300F7
:1007600003170C080313AF00F420220803178D00B1
:100770000313230803178F008D0A03198F0AA02B78
:1007800004300313A200FA30B0003E20A20BC32BAA
:100790008A110A12E32B840183131F308305A10100
:1007A000A001831603170908C039890003131F121B
:1007B0009F12003003178800831287018801890186
:0A07C0000313A328072BE32B6300AB
:04400E00E22FFF3F5F
:00000001FF
;PIC16F887
;CRC=2866  CREATED="28-‰Ê„»—-18 20:21"
