:1000000001308A00DC2900000A108A100A118207D8
:1000100028340C34013406340C264322201AC2241E
:1000200054104439693B65390A0020102010202BF8
:100030002310A5182E1966000C22653B65366F3813
:1000400065393A004131E43A6C10D232E836613712
:1000500000010C10C3376D3869366532A0276E1069
:100060000A100001323439342D34E434E634E334F8
:10007000C834D1342D343134383400340C003130AC
:10008000840083130008031952280230F800F70196
:10009000F70B4828F80B47289730F700F70B4E2846
:1000A000800B4528080037185728061258280616CE
:1000B000831606128312B7185F28861260288616E8
:1000C00083168612831237196728061368280617C5
:1000D000831606138312B7196F28861370288617A4
:1000E00083168613000086118312861577287828D8
:1000F0008316861183128611080083160611831257
:1001000006112730F700F70B83288628B408031957
:100110008E2883160611831206159228831606115F
:100120008312061100008316861183128611350E84
:10013000B6000F30B6053608B700532035080F3922
:10014000B600B7005320080083160611831206116B
:1001500083168611831286110F30B1003F20AB0148
:100160002B08023C031CBC280330B7005320053089
:10017000B1003F20AB0AB0280230B7005320AB01DA
:100180002B08033C031CD0282B080420AC00B4012E
:100190002C08B5007D200530B1003F20AB0AC028F7
:1001A0008A110A12F5292030C200BE01BF01C00128
:1001B000C1013908FA003808F9003708F800360894
:1001C000F7000310771CF2283A08BE073B08031813
:1001D0003B0FBF073C0803183C0FC0073D0803183E
:1001E0003D0FC107C10CC00CBF0CBE0CFA0CF90CC2
:1001F000F80CF70CC20BE1280800831802294630DE
:1002000084008313F701F801F901FA01C601C7015F
:10021000C801C901450844044304420403194029A4
:100220002030CA000310BE0DBF0DC00DC10DC60D9C
:10023000C70DC80DC90D45084902031D29294408E9
:100240004802031D292943084702031D29294208A2
:100250004602031C3A294208C6024308031C430F06
:10026000C7024408031C440FC8024508031C450F7D
:10027000C9020314F70DF80DF90DFA0DCA0B122976
:1002800046088000840A47088000840A48088000E5
:10029000840A4908800008003108F8013002031878
:1002A00054293008F7006029F7010830B200B00D7A
:1002B000F70D310877020318F700F80DB20B572934
:1002C000080001303202FC3E03187329043E7B29EA
:1002D0008030B3007329C030B30073299430B30069
:1002E0007329D430B30001303102B307B4013308AD
:1002F000B5007D2008000A148A100A1182076829B7
:100300006B296E29712930080C3A03198E29063A97
:1003100003199629023A03199C29A129B401013035
:10032000B5007D200230B1003F20A6290130B10088
:100330000230B2006121A629B4011030B5007D2041
:10034000A6290130B4003008B5007D2008007808E7
:100350002E08B0006430B1004C217708AE00780858
:100360003030031DBA29AF1CC129AF19C1292F1A7A
:100370002030BD29AF112F122F14F8077808B000D4
:1003800083212E08B0000A30B1004C217708AE005E
:1003900078083030031DD229AF19D6292F1CD62951
:1003A0002F1A2030F8077808B00083213030AE07CC
:1003B0002E08B00083210800840183131F308305B9
:1003C000831603170908C039890003131F129F12EF
:1003D0000030031788008312870188018901031305
:1003E000AA01A901A801A701A4281E30A1000D306F
:1003F000A2006330A300AE01AD01AC012108AB0047
:100400002E08B9002D08B8002C08B7002108B60046
:10041000BD01BC01BB013C30BA00D32022087707E4
:10042000A7007808A800003003180130A807790851
:10043000A900003003180130A9077A08AA0000308B
:1004400003180130AA072308AB002A08B9002908BD
:10045000B8002808B7002708B600BD01BC01BB01E1
:100460006430BA00D3202B087707A7007808A800CB
:10047000003003180130A8077908A90000300318DC
:100480000130A9077A08AA00003003180130AA0732
:1004900083102A08C1002908C0002808BF002708C7
:1004A000BE00C501C401C3016430C200FD207A084A
:1004B000B5007908B4007808B3007708B200831457
:1004C0003630840083137A08C1007908C0007808A8
:1004D000BF007708BE00C501C401C3013C30C200A3
:1004E000FD203608F7003708F8003808F900390809
:1004F000FA003608F8007808AB00AE001B30AF00F9
:10050000A7212C30B000832183102A08C1002908BC
:10051000C0002808BF002708BE00C501C40117306D
:10052000C3007030C200FD207708F8007808A400EE
:1005300083102A08C1002908C0002808BF00270826
:10054000BE00C501C401C3016430C200FD207A08A9
:10055000B5007908B4007808B3007708B2008314B6
:100560003630840083137A08C1007908C000780807
:10057000BF007708BE00C501C401C3013C30C20002
:10058000FD203608F7003708F8003808F900390868
:10059000FA003608F8007808A50083142B30840090
:1005A00083132A08C1002908C0002808BF002708B3
:1005B000BE00C501C401C3016430C200FD202B0888
:1005C000A6002408AE000130AF00A7213A30B000E9
:1005D00083212508AE000130AF00A7213A30B000DA
:1005E00083212608AE000130AF00A7210430B100FE
:1005F0000230B20061212108AE000130AF00A72116
:100600003A30B00083212208AE000130AF00A721AC
:100610003A30B00083212308AE000130AF00A7219B
:100620000A30B1003F200130A7070318A80A0319B8
:10063000A90A0319AA0A83102A08C1002908C000C0
:100640002808BF002708BE00C501C4011730C30039
:100650007030C200FD207708F8007808A1008310F0
:100660002A08C1002908C0002808BF002708BE00CA
:10067000C501C401C3016430C200FD207A08B50081
:100680007908B4007808B3007708B20083143630D4
:10069000840083137A08C1007908C0007808BF007D
:1006A0007708BE00C501C401C3013C30C200FD2073
:1006B0003608F7003708F8003808F9003908FA005A
:1006C0003608F8007808A20083142B3084008313C6
:1006D0002A08C1002908C0002808BF002708BE005A
:1006E000C501C401C3016430C200FD202B08A30072
:1006F0000430B1000230B20061212108AE000130A7
:10070000AF00A7213A30B00083212208AE000130AB
:10071000AF00A7213A30B00083212308AE0001309A
:08072000AF00A721102B6300BC
:04400E00E22FFF3F5F
:00000001FF
;PIC16F887
;CRC=579F  CREATED="29-‰Ê„»—-18 16:35"
