:1000000001308A00DC2900000A108A100A118207D8
:1000100028340C34013406340C264322201AC2241E
:1000200054104439693B65390A0020102010202BF8
:100030002310A5182E1966000C22653B65366F3813
:1000400065393A004131E43A6C10D232E836613712
:1000500000010C10C3376D3869366532A0276E1069
:100060000A100001323439342D34E434E634E334F8
:10007000C834D1342D343134383400340C003230AB
:10008000840083130008031952280230F800F70196
:10009000F70B4828F80B47289730F700F70B4E2846
:1000A000800B4528080038185728061258280616CD
:1000B000831606128312B8185F28861260288616E7
:1000C00083168612831238196728061368280617C4
:1000D000831606138312B8196F28861370288617A3
:1000E00083168613000086118312861577287828D8
:1000F0008316861183128611080083160611831257
:1001000006112730F700F70B83288628B508031956
:100110008E2883160611831206159228831606115F
:100120008312061100008316861183128611360E83
:10013000B7000F30B7053708B800532036080F391D
:10014000B700B80053200800831606118312061169
:1001500083168611831286110F30B2003F20AC0146
:100160002C08023C031CBC280330B8005320053087
:10017000B2003F20AC0AB0280230B8005320AC01D6
:100180002C08033C031CD0282C080420AD00B5012A
:100190002D08B6007D200530B2003F20AC0AC028F3
:1001A0008A110A12F7292030C300BF01C001C10122
:1001B000C2013A08FA003908F9003808F80037088F
:1001C000F7000310771CF2283B08BF073C08031810
:1001D0003C0FC0073D0803183D0FC1073E08031838
:1001E0003E0FC207C20CC10CC00CBF0CFA0CF90CBC
:1001F000F80CF70CC30BE1280800831802294730DC
:1002000084008313F701F801F901FA01C701C8015D
:10021000C901CA014608450444044304031940299E
:100220002030CB000310BF0DC00DC10DC20DC70D96
:10023000C80DC90DCA0D46084A02031D29294508E3
:100240004902031D292944084802031D292943089E
:100250004702031C3A294308C7024408031C440F01
:10026000C8024508031C450FC9024608031C460F77
:10027000CA020314F70DF80DF90DFA0DCB0B122974
:1002800047088000840A48088000840A49088000E2
:10029000840A4A08800008003208F8013102031875
:1002A00054293108F7006029F7010830B300B10D77
:1002B000F70D320877020318F700F80DB30B572932
:1002C000080001303302FC3E03187329043E7B29E9
:1002D0008030B4007329C030B40073299430B40066
:1002E0007329D430B40001303202B407B5013408A8
:1002F000B6007D2008000A148A100A1182076829B6
:100300006B296E29712931080C3A03198E29063A96
:1003100003199629023A03199C29A129B501013034
:10032000B6007D200230B2003F20A6290130B20085
:100330000230B3006121A629B5011030B6007D203E
:10034000A6290130B5003108B6007D2008007808E4
:100350002F08B1006430B2004C217708AF00780854
:100360003030031DBA29B01CC129B019C129301A77
:100370002030BD29B01130123014F8077808B100D0
:1003800083212F08B1000A30B2004C217708AF005A
:1003900078083030031DD229B019D629301CD6294F
:1003A000301A2030F8077808B10083213030AF07C9
:1003B0002F08B10083210800840183131F308305B7
:1003C000A101A001831603170908C039890003138E
:1003D0001F129F12003003178800831287018801C3
:1003E00089010313AB01AA01A901A801A4281E30A9
:1003F000A2000D30A3006330A400AF01AE01AD0137
:100400002208AC002F08BA002E08B9002D08B80049
:100410002208B700BE01BD01BC013C30BB00D320A7
:1004200023087707A8007808A900003003180130D6
:10043000A9077908AA00003003180130AA077A0832
:10044000AB00003003180130AB072408AC002B08C8
:10045000BA002A08B9002908B8002808B700BE0168
:10046000BD01BC016430BB00D3202C087707A80075
:100470007808A900003003180130A9077908AA00FC
:10048000003003180130AA077A08AB0000300318C7
:100490000130AB0783102B08C2002A08C1002908CD
:1004A000C0002808BF00C601C501C4016430C300F4
:1004B000FD207A08B6007908B5007808B4007708FE
:1004C000B30083143730840083137A08C20079089C
:1004D000C1007808C0007708BF00C601C501C4018B
:1004E0003C30C300FD203708F7003808F800390811
:1004F000F9003A08FA003708F8007808AC00AF00B5
:100500001B30B000A7212C30B100832183102B08B1
:10051000C2002A08C1002908C0002808BF00C6017F
:10052000C5011730C4007030C300FD207708F80003
:100530007808A50083102B08C2002A08C1002908EA
:10054000C0002808BF00C601C501C4016430C30053
:10055000FD207A08B6007908B5007808B40077085D
:10056000B30083143730840083137A08C2007908FB
:10057000C1007808C0007708BF00C601C501C401EA
:100580003C30C300FD203708F7003808F800390870
:10059000F9003A08FA003708F8007808A600831432
:1005A0002C30840083132B08C2002A08C1002908BC
:1005B000C0002808BF00C601C501C4016430C300E3
:1005C000FD202C08A7002508AF000130B000A721AE
:1005D0003A30B10083212608AF000130B000A721D6
:1005E0003A30B10083212708AF000130B000A721C5
:1005F0000430B2000230B30061212208AF000130A4
:10060000B000A7213A30B10083212308AF000130A8
:10061000B000A7213A30B10083212408AF00013097
:10062000B000A7210A30B2003F200130A80703180C
:10063000A90A0319AA0A0319AB0A83102B08C200DE
:100640002A08C1002908C0002808BF00C601C5014A
:100650001730C4007030C300FD207708F800780818
:10066000A20083102B08C2002A08C1002908C0007C
:100670002808BF00C601C501C4016430C300FD20C5
:100680007A08B6007908B5007808B4007708B30096
:1006900083143730840083137A08C2007908C100BC
:1006A0007808C0007708BF00C601C501C4013C300E
:1006B000C300FD203708F7003808F8003908F900B2
:1006C0003A08FA003708F8007808A30083142C30A1
:1006D000840083132B08C2002A08C1002908C00027
:1006E0002808BF00C601C501C4016430C300FD2055
:1006F0002C08A4000430B2000230B30061212208AB
:10070000AF000130B000A7213A30B10083212308A7
:10071000AF000130B000A7213A30B1008321240896
:0C072000AF000130B000A721122B6300D5
:04400E00E22FFF3F5F
:00000001FF
;PIC16F887
;CRC=3D60  CREATED="29-‰Ê„»—-18 15:54"
