:1000000000308A0040280000FF00030E8301A10099
:100010000A08A0008A010408A2007708A300780853
:10002000A4007908A5007A08A600831383120B1E8A
:100030001B288B182C28220884002308F70024088A
:10004000F8002508F9002608FA0020088A00210E89
:100050008300FF0E7F0E09008A110A122F2827182D
:100060003728271483160810831208143C282710F9
:1000700083160810831208108B108A110A121B288D
:10008000840183131F308305271083160317090883
:10009000C039890003131F129F1200300317880014
:1000A00083128701880189018316031301138312C8
:0A00B0000B16C0308B045B286300C0
:04400E00E22FFF3F5F
:00000001FF
;PIC16F887
;CRC=5AD6  CREATED="30-«ò Ê»—-18 20:42"
