:1000000000308A00C7280000FF00030E8301A10012
:100010000A08A0008A010408A2007708A300780853
:10002000A4007908A5007A08A600831383128B1E0A
:100030001B280B192C28220884002308F700240809
:10004000F8002508F9002608FA0020088A00210E89
:100050008300FF0E7F0E09008A110A124F283E0806
:100060000739F7003E0CF800F80CF80C1F30F805C3
:10007000780840078400831341188317F801F80AB1
:10008000F70A4328F80DF70B4228BF0803194B283D
:10009000780880044E28F809780880050800B00A1E
:1000A0000319B10AB108031D91283008043C031C50
:1000B00091282B08BE000130BF00C101C0012F20D4
:1000C0002B08BE00BF01C1018030C0002F202C08CA
:1000D000BE000130BF00C101C0012F202C08BE00AE
:1000E000BF01C1018030C0002F202D08BE000130AB
:1000F000BF00C101C0012F202D08BE00BF01C101FA
:100100008030C0002F202E08BE000130BF00C1018A
:10011000C0012F202E08BE00BF01C1018030C000E9
:100120002F20B108031D98283008043C0318C0286C
:10013000B101B00127302F0784008313323000074C
:10014000840083130008BD008316860183123D08D6
:1001500086002B302F07840083130008BD00BE00EB
:10016000BF01C101C0012F203D08BE00BF01C10178
:100170008030C0002F20AF0A2F08043C031CAF01C1
:100180000B11063081000B118A110A121B28840101
:1001900083131F308305AF01B101B001831603172C
:1001A0000908C039890003131F129F12003003177A
:1001B0008800831287018801890101300313A70099
:1001C0000230A8000330A9000430AA004730AB0079
:1001D0004630AC004530AD004430AE000330B200D4
:1001E0009F30B3002530B4000D30B5009930B60013
:1001F0004930B7004130B8001F30B9000130BA00B3
:100200000930BB00FF30BC0083160108C73908382D
:1002100081000630831281000B118B16C0308B04D5
:04022000102963003E
:04400E00222FFF3F1F
:00000001FF
;PIC16F887
;CRC=69F6  CREATED="19-Dec-18 20:42"
