:1000000000308A001A2800002D3084008313000875
:10001000031917280230F800F701F70B0D28F80B29
:100020000C289730F700F70B1328800B0A288A1149
:100030000A125A28840183131F308305831603177D
:100040000908C039890003131F129F1200300317DB
:100050008800831287018801890103300313A000FF
:100060009F30A1002530A2000D30A3009930A400DC
:100070004930A5004130A6001F30A7000130A8007C
:100080000930A900FF30AA00AB01AB012B08093CE5
:10009000031C5E2820302B07840083130008AC006B
:1000A0008316860183122C0886000230AC00FA30D9
:1000B000AD000428AC0B5728AB0A4628442863003F
:04400E00E22FFF3F5F
:00000001FF
;PIC16F887
;CRC=2876  CREATED="17-Dec-18 21:44"
