:1000000000308A007D2800002F08F8012E02031816
:100010000C282E08F7001828F7010830B000AE0DA4
:10002000F70D2F0877020318F700F80DB00B0F2813
:1000300008002F3084008313000803192C28023095
:10004000F800F701F70B2228F80B21289730F7006A
:10005000F70B2828800B1F280800AE01AE012E08E0
:10006000633C031C7A2820302C078400831300088B
:10007000AF008316860183122F08860083160813AB
:100080008312081783168813831288130130AF0078
:1000900019208316081383120817831688138312F6
:1000A00088170130AF00192020302D0784008313FA
:1000B0000008AF008316860183122F08860083167E
:1000C00088138312881783160813831208130130CC
:1000D000AF0019208316081383120817831688139C
:1000E000831288170130AF0019200630AF001920A5
:1000F000AE0A2F288A110A12BE28840183131F30EA
:100100008305AB01AC01AD01831603170908C039A3
:10011000890003131F129F120030031788008312F7
:1001200087018801890103300313A0009F30A100DB
:100130002530A2000D30A3009930A4004930A5005D
:100140004130A6001F30A7000130A8000930A900E7
:10015000FF30AA00AB0A2B08633C031CAB012B0841
:10016000AE000A30AF0004207708AC002B08AE00C8
:100170000A30AF0004207808AD002D28AA286300BB
:04400E00E22FFF3F5F
:00000001FF
;PIC16F887
;CRC=836D  CREATED="19-Dec-18 15:20"
