:1000000003308A00822B00000A108A100A1182072E
:1000100028340C34013406340C264322201AC2241E
:1000200054104439693B65390A0020102010202BF8
:100030002310A5182E1966000C22653B65366F3813
:1000400065393A004131E43A6C10D232E836613712
:1000500000002F3084008313000803193C2802306D
:10006000F800F701F70B3228F80B31289730F7002A
:10007000F70B3828800B2F28080035184128061266
:1000800042280616831606128312B51849288612CE
:100090004A288616831686128312351951280613AC
:1000A00052280617831606138312B519592886138A
:1000B0005A28861783168613000086118312861528
:1000C0006128622883168611831286110800831620
:1000D0000611831206112730F700F70B6D287028E0
:1000E000B2080319782883160611831206157C2896
:1000F00083160611831206110000831686118312DF
:100100008611330EB4000F30B4053408B5003D201D
:1001100033080F39B400B5003D20080083160611DE
:100120008312061183168611831286110F30AF00D9
:100130002920A1012108023C031CA6280330B50098
:100140003D200530AF002920A10A9A280230B500D1
:100150003D20A1012108033C031CBA2821080420EA
:10016000A200B2012208B30067200530AF002920A9
:10017000A10AAA288A110A12992B01303002FC3EEA
:100180000318CF28043ED7288030B100CF28C030D4
:10019000B100CF289430B100CF28D430B100013065
:1001A0002F02B107B2013108B300672008000A101E
:1001B0008A100A118207C428C728CA28CD282E0809
:1001C0000C3A0319EA28063A0319F228023A0319ED
:1001D000F828FD28B2010130B30067200230AF00DB
:1001E000292002290130AF000230B000BD200229D1
:1001F000B2011030B300672002290130B2002E088E
:10020000B300672008000B08A1008B1383160317A7
:100210008C170C140000000083120C087F3903199E
:100220004A290313A20003170D080313A3000317A1
:100230000F080313A4002208AE00DF2023080317D1
:100240008D000313240803178F0083168C170C14DA
:100250000000000083120C0D0E0D7F3903194A298E
:100260000313A20003170D080313A30003170F08BD
:100270000313A4002208AE00DF20230803178D001B
:100280000313240803178F008D0A03198F0A031321
:10029000062903170313A11B8B1708008318532982
:1002A000363084008313F701F801F901FA01B60131
:1002B000B701B801B9013508340433043204031915
:1002C00091292030BA000310AE0DAF0DB00DB10D65
:1002D000B60DB70DB80DB90D35083902031D7A29D1
:1002E00034083802031D7A2933083702031D7A299E
:1002F00032083602031C8B293208B6023308031C6D
:10030000330FB7023408031C340FB8023508031C3E
:10031000350FB9020314F70DF80DF90DFA0DBA0BEC
:10032000632936088000840A37088000840A380868
:100330008000840A3908800008000408A600250807
:10034000A80003192F2A2408B1002308B0002208AE
:10035000AF002108AE00B501B4012030B3008230F7
:10036000B2002E080319212AB60032080319212AE7
:10037000B6070318C2297F30B602031C212A0319CD
:10038000212AC6298130B6070318212A3608F7002A
:10039000F801F901FA012F08BA00BA173008B900BC
:1003A0003108B8001830B600B701381CEF293508FD
:1003B000FA07031CE129F90A031DE129F80A0319C8
:1003C000B7173408F907031CE829F80A0319B71707
:1003D0003308B000B0173008F8070318B717B70D87
:1003E000F80CF90CFA0CBA0CB90CB80C0310B60BDB
:1003F000D4290130F7070318212AF81B062ABA0D61
:10040000FA0DF90DF80DF7030319212ABA1F172A5F
:10041000FA0A031D172AF90A031D172AF80A031DF1
:10042000172AF80CF90CFA0CF70A0319212A2F08DD
:10043000B7003308B706B71F1F2AF817252AF81385
:10044000252AF701F801F901FA017A08A4007908D0
:10045000A3007808A2007708A100A80BA32924080C
:10046000B1002308B0002208AF002108AE002E081A
:10047000B63CAE00FA012F08B200AF170310AF0C64
:10048000B00CB10CFA0CF90CF80CF70CAE0B3E2AC0
:10049000B21F552AF709F809F909FA09F70A0319E9
:1004A000F80A0319F90A0319FA0A7A08A400790864
:1004B000A3007808A2007708A100A41F6C2AA60355
:1004C000A616A109A209A309A409A10A0319A20A4F
:1004D0000319A30A0319A40A3B30AD009A30AC00FB
:1004E000CA30AB00AA010A30A80025080319A60AE1
:1004F00083142130840083132408B1002308B00042
:100500002208AF002108AE002D08B5002C08B40069
:100510002B08B3002A08B2004E217808F708031D03
:10052000A42A250A28020319A42A26080319A62AA0
:100530000F39280203199E2A0318D62AA61BD62A89
:10054000261BA62A2030D22A2030A605A61EB42AB1
:10055000A6122508031DA6037708A6002D30AE00BD
:10056000DF202608F700A60125082802031DC22A5D
:100570007708A6002E30AE00DF202608F7002030D6
:10058000A60500303030A61ED22AA6122508031D6B
:10059000A6037708A6002D30AE00DF202608F7005E
:1005A000A6013030F7077708AE00DF2083102D0852
:1005B000B1002C08B0002B08AF002A08AE00B5012E
:1005C000B401B3010A30B2004E217A08AD007908B7
:1005D000AC007808AB007708AA00A80B782A8A112B
:1005E0000A125F2B0C3003178D0000308F000313AD
:1005F0000321153003178D0000308F0003100830E1
:100600000313A1000B08A2008B13831603178C178A
:100610000C14000000000318342B83120C087F39DF
:100620000313A30003170D080313A40003170F08F7
:100630000313A5002308AE00DF20240803178D0054
:100640000313250803178F0083168C170C14000062
:10065000000083120313A10B2E2B312B83160317DB
:10066000342B532B8316031783120C0D0E0D7F3979
:100670000313A30003170D080313A40003170F08A7
:100680000313A5002308AE00DF20240803178D0004
:100690000313250803178F008D0A03198F0A03100F
:1006A0000313A10B052BA21B8B1789308400A40117
:1006B000A301A2017F30A1000230A5009D290630D0
:1006C000A100FA30AF002920A10B612B1C300317C9
:1006D0008D0000308F00031303210230AF00B00003
:1006E000BD20223003178D0000308F00031303213B
:1006F0000430A100FA30AF002920A10B7A2B8A1117
:100700000A129A2B840183131F308305FF30A00047
:10071000831603170908C039890003131F129F129B
:1007200000300317880083128701880189010313B1
:080730008E28F22A992B6300C8
:04400E00E22FFF3F5F
:00000001FF
;PIC16F887
;CRC=A3CA  CREATED="28-‰Ê„»—-18 18:34"
