:1000000003308A00CB2B00000A108A100A118207E5
:1000100028340C34013406340C264322201AC2241E
:1000200054104439693B65390A0020102010202BF8
:100030002310A5182E1966000C22653B65366F3813
:1000400065393A004131E43A6C10D232E836613712
:1000500000010C10C3376D3869366532A0276E1069
:100060000A100001323438342D34E434E634E334F9
:10007000C834D1342D343134383400342F30840036
:1000800083130008031951280230F800F701F70B19
:100090004728F80B46289730F700F70B4D28800BC0
:1000A00044280800351856280612572806168316C5
:1000B00006128312B5185E2886125F2886168316EC
:1000C00086128312351966280613672806178316C9
:1000D00006138312B5196E2886136F2886178316A8
:1000E00086130000861183128615762877288316DA
:1000F00086118312861108008316061183120611D9
:100100002730F700F70B82288528B20803198D28BD
:100110008316061183120615912883160611831281
:10012000061100008316861183128611330EB40067
:100130000F30B4053408B500522033080F39B4002D
:10014000B50052200800831606118312061183168B
:100150008611831286110F30AF003E20A1012108C5
:10016000023C031CBB280330B50052200530AF0011
:100170003E20A10AAF280230B5005220A10121087B
:10018000033C031CCF2821080420A200B20122084E
:10019000B3007C200530AF003E20A10ABF288A11A1
:1001A0000A12E02B01303002FC3E0318E428043E22
:1001B000EC288030B100E428C030B100E42894304D
:1001C000B100E428D430B10001302F02B107B201F0
:1001D0003108B3007C2008000A108A100A11820737
:1001E000D928DC28DF28E2282E080C3A0319FF283A
:1001F000063A03190729023A03190D291229B201F7
:100200000130B3007C200230AF003E2017290130BE
:10021000AF000230B000D2201729B2011030B30075
:100220007C2017290130B2002E08B3007C20080082
:100230000B08A1008B13831603178C170C140000F6
:10024000000083120C087F3903195F290313A200F1
:1002500003170D080313A30003170F080313A400CB
:100260002208AE00F420230803178D00031324088E
:1002700003178F0083168C170C14000000008312E4
:100280000C0D0E0D7F3903195F290313A20003170C
:100290000D080313A30003170F080313A40022087B
:1002A000AE00F420230803178D000313240803175E
:1002B0008F008D0A03198F0A03131B2903170313D9
:1002C000A11B8B170800831868293630840083131C
:1002D000F701F801F901FA01B601B701B801B90156
:1002E00035083404330432040319A6292030BA0037
:1002F0000310AE0DAF0DB00DB10DB60DB70DB80DAD
:10030000B90D35083902031D8F2934083802031D41
:100310008F2933083702031D8F2932083602031C48
:10032000A0293208B6023308031C330FB702340881
:10033000031C340FB8023508031C350FB90203142F
:10034000F70DF80DF90DFA0DBA0B78293608800073
:10035000840A37088000840A38088000840A390833
:10036000800008000408A6002508A8000319442AF4
:100370002408B1002308B0002208AF002108AE0015
:10038000B501B4012030B3008230B2002E08031949
:10039000362AB60032080319362AB6070318D729B9
:1003A0007F30B602031C362A0319362ADB29813036
:1003B000B6070318362A3608F700F801F901FA01E2
:1003C0002F08BA00BA173008B9003108B800183041
:1003D000B600B701381C042A3508FA07031CF629B1
:1003E000F90A031DF629F80A0319B7173408F907A3
:1003F000031CFD29F80A0319B7173308B000B0171A
:100400003008F8070318B717B70DF80CF90CFA0CF9
:10041000BA0CB90CB80C0310B60BE9290130F70778
:100420000318362AF81B1B2ABA0DFA0DF90DF80D20
:10043000F7030319362ABA1F2C2AFA0A031D2C2A9D
:10044000F90A031D2C2AF80A031D2C2AF80CF90CB2
:10045000FA0CF70A0319362A2F08B7003308B70633
:10046000B71F342AF8173A2AF8133A2AF701F80185
:10047000F901FA017A08A4007908A3007808A2001B
:100480007708A100A80BB8292408B1002308B00000
:100490002208AF002108AE002E08B63CAE00FA01DB
:1004A0002F08B200AF170310AF0CB00CB10CFA0C50
:1004B000F90CF80CF70CAE0B532AB21F6A2AF70995
:1004C000F809F909FA09F70A0319F80A0319F90AE8
:1004D0000319FA0A7A08A4007908A3007808A20090
:1004E0007708A100A41F812AA603A616A109A209C4
:1004F000A309A409A10A0319A20A0319A30A03194B
:10050000A40A3B30AD009A30AC00CA30AB00AA015F
:100510000A30A80025080319A60A83142130840094
:1005200083132408B1002308B0002208AF0021087B
:10053000AE002D08B5002C08B4002B08B3002A0823
:10054000B20063217808F708031DB92A250A28029A
:100550000319B92A26080319BB2A0F3928020319DF
:10056000B32A0318EB2AA61BEB2A261BBB2A203032
:10057000E72A2030A605A61EC92AA6122508031DB3
:10058000A6037708A6002D30AE00F4202608F70059
:10059000A60125082802031DD72A7708A6002E30B9
:1005A000AE00F4202608F7002030A60500303030D9
:1005B000A61EE72AA6122508031DA6037708A60093
:1005C0002D30AE00F4202608F700A6013030F707E2
:1005D0007708AE00F42083102D08B1002C08B0007D
:1005E0002B08AF002A08AE00B501B401B3010A30F0
:1005F000B20063217A08AD007908AC007808AB003E
:100600007708AA00A80B8D2A8A110A12742B0C30C5
:1006100003178D0000308F000313182115300317C6
:100620008D0000308F00031008300313A1000B0869
:10063000A2008B13831603178C170C140000000004
:100640000318492B83120C087F390313A3000317E7
:100650000D080313A40003170F080313A5002308B4
:10066000AE00F420240803178D0003132508031798
:100670008F0083168C170C140000000083120313E4
:10068000A10B432B462B83160317492B682B83168C
:10069000031783120C0D0E0D7F390313A3000317EC
:1006A0000D080313A40003170F080313A500230864
:1006B000AE00F420240803178D0003132508031748
:1006C0008F008D0A03198F0A03100313A10B1A2B35
:1006D000A21B8B1789308400A401A301A2017F30E3
:1006E000A1000230A500B2290630A100FA30AF0007
:1006F0003E20A10B762B1C3003178D0000308F009D
:10070000031318210230AF00B000D22022300317AB
:100710008D0000308F00031318210430A100FA303F
:10072000AF003E20A10B8F2B293003178D00003026
:100730008F0003131821323003178D0000308F0013
:1007400083168C170C140000000083128C08031908
:10075000C02B0D080313A10003170F080313A200F9
:1007600003170C080313AE00F420210803178D00B3
:100770000313220803178F008D0A03198F0AA02B79
:1007800004300313A100FA30AF003E20A10BC32BAD
:100790008A110A12E12B840183131F30830583160B
:1007A00003170908C039890003131F129F12003074
:1007B0000317880083128701880189010313A32886
:0607C000072BE02B630093
:04400E00E22FFF3F5F
:00000001FF
;PIC16F887
;CRC=A7D1  CREATED="28-‰Ê„»—-18 19:33"
